{
  "_format": "hh-sol-artifact-1",
  "contractName": "Faucet",
  "sourceName": "contracts/Faucet.sol",
  "abi": [
    {
      "inputs": [
        {
          "internalType": "contract IERC20",
          "name": "_tokenAddress",
          "type": "address"
        }
      ],
      "stateMutability": "nonpayable",
      "type": "constructor"
    },
    {
      "anonymous": false,
      "inputs": [
        {
          "indexed": true,
          "internalType": "address",
          "name": "owner",
          "type": "address"
        },
        {
          "indexed": true,
          "internalType": "address",
          "name": "spender",
          "type": "address"
        },
        {
          "indexed": false,
          "internalType": "uint256",
          "name": "value",
          "type": "uint256"
        }
      ],
      "name": "Approval",
      "type": "event"
    },
    {
      "anonymous": false,
      "inputs": [
        {
          "indexed": true,
          "internalType": "address",
          "name": "from",
          "type": "address"
        },
        {
          "indexed": true,
          "internalType": "address",
          "name": "to",
          "type": "address"
        },
        {
          "indexed": false,
          "internalType": "uint256",
          "name": "value",
          "type": "uint256"
        }
      ],
      "name": "Transfer",
      "type": "event"
    },
    {
      "inputs": [
        {
          "internalType": "address",
          "name": "owner",
          "type": "address"
        },
        {
          "internalType": "address",
          "name": "spender",
          "type": "address"
        }
      ],
      "name": "allowance",
      "outputs": [
        {
          "internalType": "uint256",
          "name": "",
          "type": "uint256"
        }
      ],
      "stateMutability": "view",
      "type": "function"
    },
    {
      "inputs": [
        {
          "internalType": "address",
          "name": "spender",
          "type": "address"
        },
        {
          "internalType": "uint256",
          "name": "amount",
          "type": "uint256"
        }
      ],
      "name": "approve",
      "outputs": [
        {
          "internalType": "bool",
          "name": "",
          "type": "bool"
        }
      ],
      "stateMutability": "nonpayable",
      "type": "function"
    },
    {
      "inputs": [
        {
          "internalType": "address",
          "name": "account",
          "type": "address"
        }
      ],
      "name": "balanceOf",
      "outputs": [
        {
          "internalType": "uint256",
          "name": "",
          "type": "uint256"
        }
      ],
      "stateMutability": "view",
      "type": "function"
    },
    {
      "inputs": [],
      "name": "decimals",
      "outputs": [
        {
          "internalType": "uint8",
          "name": "",
          "type": "uint8"
        }
      ],
      "stateMutability": "view",
      "type": "function"
    },
    {
      "inputs": [
        {
          "internalType": "address",
          "name": "spender",
          "type": "address"
        },
        {
          "internalType": "uint256",
          "name": "subtractedValue",
          "type": "uint256"
        }
      ],
      "name": "decreaseAllowance",
      "outputs": [
        {
          "internalType": "bool",
          "name": "",
          "type": "bool"
        }
      ],
      "stateMutability": "nonpayable",
      "type": "function"
    },
    {
      "inputs": [],
      "name": "giveFunds",
      "outputs": [],
      "stateMutability": "payable",
      "type": "function"
    },
    {
      "inputs": [
        {
          "internalType": "address",
          "name": "spender",
          "type": "address"
        },
        {
          "internalType": "uint256",
          "name": "addedValue",
          "type": "uint256"
        }
      ],
      "name": "increaseAllowance",
      "outputs": [
        {
          "internalType": "bool",
          "name": "",
          "type": "bool"
        }
      ],
      "stateMutability": "nonpayable",
      "type": "function"
    },
    {
      "inputs": [],
      "name": "name",
      "outputs": [
        {
          "internalType": "string",
          "name": "",
          "type": "string"
        }
      ],
      "stateMutability": "view",
      "type": "function"
    },
    {
      "inputs": [],
      "name": "symbol",
      "outputs": [
        {
          "internalType": "string",
          "name": "",
          "type": "string"
        }
      ],
      "stateMutability": "view",
      "type": "function"
    },
    {
      "inputs": [],
      "name": "token",
      "outputs": [
        {
          "internalType": "contract IERC20",
          "name": "",
          "type": "address"
        }
      ],
      "stateMutability": "view",
      "type": "function"
    },
    {
      "inputs": [],
      "name": "totalSupply",
      "outputs": [
        {
          "internalType": "uint256",
          "name": "",
          "type": "uint256"
        }
      ],
      "stateMutability": "view",
      "type": "function"
    },
    {
      "inputs": [
        {
          "internalType": "address",
          "name": "to",
          "type": "address"
        },
        {
          "internalType": "uint256",
          "name": "amount",
          "type": "uint256"
        }
      ],
      "name": "transfer",
      "outputs": [
        {
          "internalType": "bool",
          "name": "",
          "type": "bool"
        }
      ],
      "stateMutability": "nonpayable",
      "type": "function"
    },
    {
      "inputs": [
        {
          "internalType": "address",
          "name": "from",
          "type": "address"
        },
        {
          "internalType": "address",
          "name": "to",
          "type": "address"
        },
        {
          "internalType": "uint256",
          "name": "amount",
          "type": "uint256"
        }
      ],
      "name": "transferFrom",
      "outputs": [
        {
          "internalType": "bool",
          "name": "",
          "type": "bool"
        }
      ],
      "stateMutability": "nonpayable",
      "type": "function"
    },
    {
      "inputs": [],
      "name": "withdrawAll",
      "outputs": [],
      "stateMutability": "payable",
      "type": "function"
    }
  ],
  "bytecode": "0x6080604052683635c9adc5dea000006007553480156200001e57600080fd5b5060405162001ed638038062001ed68339818101604052810190620000449190620001dd565b6040518060400160405280600f81526020017f446973636f7665725061747461796100000000000000000000000000000000008152506040518060400160405280600381526020017f44505400000000000000000000000000000000000000000000000000000000008152508160039081620000c1919062000489565b508060049081620000d3919062000489565b50505033600560006101000a81548173ffffffffffffffffffffffffffffffffffffffff021916908373ffffffffffffffffffffffffffffffffffffffff16021790555080600660006101000a81548173ffffffffffffffffffffffffffffffffffffffff021916908373ffffffffffffffffffffffffffffffffffffffff1602179055505062000570565b600080fd5b600073ffffffffffffffffffffffffffffffffffffffff82169050919050565b6000620001918262000164565b9050919050565b6000620001a58262000184565b9050919050565b620001b78162000198565b8114620001c357600080fd5b50565b600081519050620001d781620001ac565b92915050565b600060208284031215620001f657620001f56200015f565b5b60006200020684828501620001c6565b91505092915050565b600081519050919050565b7f4e487b7100000000000000000000000000000000000000000000000000000000600052604160045260246000fd5b7f4e487b7100000000000000000000000000000000000000000000000000000000600052602260045260246000fd5b600060028204905060018216806200029157607f821691505b602082108103620002a757620002a662000249565b5b50919050565b60008190508160005260206000209050919050565b60006020601f8301049050919050565b600082821b905092915050565b600060088302620003117fffffffffffffffffffffffffffffffffffffffffffffffffffffffffffffffff82620002d2565b6200031d8683620002d2565b95508019841693508086168417925050509392505050565b6000819050919050565b6000819050919050565b60006200036a620003646200035e8462000335565b6200033f565b62000335565b9050919050565b6000819050919050565b620003868362000349565b6200039e620003958262000371565b848454620002df565b825550505050565b600090565b620003b5620003a6565b620003c28184846200037b565b505050565b5b81811015620003ea57620003de600082620003ab565b600181019050620003c8565b5050565b601f82111562000439576200040381620002ad565b6200040e84620002c2565b810160208510156200041e578190505b620004366200042d85620002c2565b830182620003c7565b50505b505050565b600082821c905092915050565b60006200045e600019846008026200043e565b1980831691505092915050565b60006200047983836200044b565b9150826002028217905092915050565b62000494826200020f565b67ffffffffffffffff811115620004b057620004af6200021a565b5b620004bc825462000278565b620004c9828285620003ee565b600060209050601f831160018114620005015760008415620004ec578287015190505b620004f885826200046b565b86555062000568565b601f1984166200051186620002ad565b60005b828110156200053b5784890151825560018201915060208501945060208101905062000514565b868310156200055b578489015162000557601f8916826200044b565b8355505b6001600288020188555050505b505050505050565b61195680620005806000396000f3fe6080604052600436106100dd5760003560e01c8063853828b61161007f578063a9059cbb11610059578063a9059cbb146102c9578063ce948b4014610306578063dd62ed3e14610310578063fc0c546a1461034d576100dd565b8063853828b61461025757806395d89b4114610261578063a457c2d71461028c576100dd565b806323b872dd116100bb57806323b872dd14610175578063313ce567146101b257806339509351146101dd57806370a082311461021a576100dd565b806306fdde03146100e2578063095ea7b31461010d57806318160ddd1461014a575b600080fd5b3480156100ee57600080fd5b506100f7610378565b6040516101049190610fa9565b60405180910390f35b34801561011957600080fd5b50610134600480360381019061012f9190611064565b61040a565b60405161014191906110bf565b60405180910390f35b34801561015657600080fd5b5061015f61042d565b60405161016c91906110e9565b60405180910390f35b34801561018157600080fd5b5061019c60048036038101906101979190611104565b610437565b6040516101a991906110bf565b60405180910390f35b3480156101be57600080fd5b506101c7610466565b6040516101d49190611173565b60405180910390f35b3480156101e957600080fd5b5061020460048036038101906101ff9190611064565b61046f565b60405161021191906110bf565b60405180910390f35b34801561022657600080fd5b50610241600480360381019061023c919061118e565b6104a6565b60405161024e91906110e9565b60405180910390f35b61025f6104ee565b005b34801561026d57600080fd5b506102766106de565b6040516102839190610fa9565b60405180910390f35b34801561029857600080fd5b506102b360048036038101906102ae9190611064565b610770565b6040516102c091906110bf565b60405180910390f35b3480156102d557600080fd5b506102f060048036038101906102eb9190611064565b6107e7565b6040516102fd91906110bf565b60405180910390f35b61030e61080a565b005b34801561031c57600080fd5b50610337600480360381019061033291906111bb565b61098f565b60405161034491906110e9565b60405180910390f35b34801561035957600080fd5b50610362610a16565b60405161036f919061125a565b60405180910390f35b606060038054610387906112a4565b80601f01602080910402602001604051908101604052809291908181526020018280546103b3906112a4565b80156104005780601f106103d557610100808354040283529160200191610400565b820191906000526020600020905b8154815290600101906020018083116103e357829003601f168201915b5050505050905090565b600080610415610a3c565b9050610422818585610a44565b600191505092915050565b6000600254905090565b600080610442610a3c565b905061044f858285610c0d565b61045a858585610c99565b60019150509392505050565b60006012905090565b60008061047a610a3c565b905061049b81858561048c858961098f565b6104969190611304565b610a44565b600191505092915050565b60008060008373ffffffffffffffffffffffffffffffffffffffff1673ffffffffffffffffffffffffffffffffffffffff168152602001908152602001600020549050919050565b600560009054906101000a900473ffffffffffffffffffffffffffffffffffffffff1673ffffffffffffffffffffffffffffffffffffffff163373ffffffffffffffffffffffffffffffffffffffff161461057e576040517f08c379a000000000000000000000000000000000000000000000000000000000815260040161057590611384565b60405180910390fd5b600660009054906101000a900473ffffffffffffffffffffffffffffffffffffffff1673ffffffffffffffffffffffffffffffffffffffff1663a9059cbb600560009054906101000a900473ffffffffffffffffffffffffffffffffffffffff16600660009054906101000a900473ffffffffffffffffffffffffffffffffffffffff1673ffffffffffffffffffffffffffffffffffffffff166370a08231306040518263ffffffff1660e01b815260040161063a91906113b3565b602060405180830381865afa158015610657573d6000803e3d6000fd5b505050506040513d601f19601f8201168201806040525081019061067b91906113e3565b6040518363ffffffff1660e01b8152600401610698929190611431565b6020604051808303816000875af11580156106b7573d6000803e3d6000fd5b505050506040513d601f19601f820116820180604052508101906106db9190611486565b50565b6060600480546106ed906112a4565b80601f0160208091040260200160405190810160405280929190818152602001828054610719906112a4565b80156107665780601f1061073b57610100808354040283529160200191610766565b820191906000526020600020905b81548152906001019060200180831161074957829003601f168201915b5050505050905090565b60008061077b610a3c565b90506000610789828661098f565b9050838110156107ce576040517f08c379a00000000000000000000000000000000000000000000000000000000081526004016107c590611525565b60405180910390fd5b6107db8286868403610a44565b60019250505092915050565b6000806107f2610a3c565b90506107ff818585610c99565b600191505092915050565b600754600660009054906101000a900473ffffffffffffffffffffffffffffffffffffffff1673ffffffffffffffffffffffffffffffffffffffff166370a08231306040518263ffffffff1660e01b815260040161086891906113b3565b602060405180830381865afa158015610885573d6000803e3d6000fd5b505050506040513d601f19601f820116820180604052508101906108a991906113e3565b10156108ea576040517f08c379a00000000000000000000000000000000000000000000000000000000081526004016108e190611591565b60405180910390fd5b600660009054906101000a900473ffffffffffffffffffffffffffffffffffffffff1673ffffffffffffffffffffffffffffffffffffffff1663a9059cbb336007546040518363ffffffff1660e01b81526004016109499291906115b1565b6020604051808303816000875af1158015610968573d6000803e3d6000fd5b505050506040513d601f19601f8201168201806040525081019061098c9190611486565b50565b6000600160008473ffffffffffffffffffffffffffffffffffffffff1673ffffffffffffffffffffffffffffffffffffffff16815260200190815260200160002060008373ffffffffffffffffffffffffffffffffffffffff1673ffffffffffffffffffffffffffffffffffffffff16815260200190815260200160002054905092915050565b600660009054906101000a900473ffffffffffffffffffffffffffffffffffffffff1681565b600033905090565b600073ffffffffffffffffffffffffffffffffffffffff168373ffffffffffffffffffffffffffffffffffffffff1603610ab3576040517f08c379a0000000000000000000000000000000000000000000000000000000008152600401610aaa9061164c565b60405180910390fd5b600073ffffffffffffffffffffffffffffffffffffffff168273ffffffffffffffffffffffffffffffffffffffff1603610b22576040517f08c379a0000000000000000000000000000000000000000000000000000000008152600401610b19906116de565b60405180910390fd5b80600160008573ffffffffffffffffffffffffffffffffffffffff1673ffffffffffffffffffffffffffffffffffffffff16815260200190815260200160002060008473ffffffffffffffffffffffffffffffffffffffff1673ffffffffffffffffffffffffffffffffffffffff168152602001908152602001600020819055508173ffffffffffffffffffffffffffffffffffffffff168373ffffffffffffffffffffffffffffffffffffffff167f8c5be1e5ebec7d5bd14f71427d1e84f3dd0314c0f7b2291e5b200ac8c7c3b92583604051610c0091906110e9565b60405180910390a3505050565b6000610c19848461098f565b90507fffffffffffffffffffffffffffffffffffffffffffffffffffffffffffffffff8114610c935781811015610c85576040517f08c379a0000000000000000000000000000000000000000000000000000000008152600401610c7c9061174a565b60405180910390fd5b610c928484848403610a44565b5b50505050565b600073ffffffffffffffffffffffffffffffffffffffff168373ffffffffffffffffffffffffffffffffffffffff1603610d08576040517f08c379a0000000000000000000000000000000000000000000000000000000008152600401610cff906117dc565b60405180910390fd5b600073ffffffffffffffffffffffffffffffffffffffff168273ffffffffffffffffffffffffffffffffffffffff1603610d77576040517f08c379a0000000000000000000000000000000000000000000000000000000008152600401610d6e9061186e565b60405180910390fd5b610d82838383610f0f565b60008060008573ffffffffffffffffffffffffffffffffffffffff1673ffffffffffffffffffffffffffffffffffffffff16815260200190815260200160002054905081811015610e08576040517f08c379a0000000000000000000000000000000000000000000000000000000008152600401610dff90611900565b60405180910390fd5b8181036000808673ffffffffffffffffffffffffffffffffffffffff1673ffffffffffffffffffffffffffffffffffffffff16815260200190815260200160002081905550816000808573ffffffffffffffffffffffffffffffffffffffff1673ffffffffffffffffffffffffffffffffffffffff168152602001908152602001600020600082825401925050819055508273ffffffffffffffffffffffffffffffffffffffff168473ffffffffffffffffffffffffffffffffffffffff167fddf252ad1be2c89b69c2b068fc378daa952ba7f163c4a11628f55a4df523b3ef84604051610ef691906110e9565b60405180910390a3610f09848484610f14565b50505050565b505050565b505050565b600081519050919050565b600082825260208201905092915050565b60005b83811015610f53578082015181840152602081019050610f38565b60008484015250505050565b6000601f19601f8301169050919050565b6000610f7b82610f19565b610f858185610f24565b9350610f95818560208601610f35565b610f9e81610f5f565b840191505092915050565b60006020820190508181036000830152610fc38184610f70565b905092915050565b600080fd5b600073ffffffffffffffffffffffffffffffffffffffff82169050919050565b6000610ffb82610fd0565b9050919050565b61100b81610ff0565b811461101657600080fd5b50565b60008135905061102881611002565b92915050565b6000819050919050565b6110418161102e565b811461104c57600080fd5b50565b60008135905061105e81611038565b92915050565b6000806040838503121561107b5761107a610fcb565b5b600061108985828601611019565b925050602061109a8582860161104f565b9150509250929050565b60008115159050919050565b6110b9816110a4565b82525050565b60006020820190506110d460008301846110b0565b92915050565b6110e38161102e565b82525050565b60006020820190506110fe60008301846110da565b92915050565b60008060006060848603121561111d5761111c610fcb565b5b600061112b86828701611019565b935050602061113c86828701611019565b925050604061114d8682870161104f565b9150509250925092565b600060ff82169050919050565b61116d81611157565b82525050565b60006020820190506111886000830184611164565b92915050565b6000602082840312156111a4576111a3610fcb565b5b60006111b284828501611019565b91505092915050565b600080604083850312156111d2576111d1610fcb565b5b60006111e085828601611019565b92505060206111f185828601611019565b9150509250929050565b6000819050919050565b600061122061121b61121684610fd0565b6111fb565b610fd0565b9050919050565b600061123282611205565b9050919050565b600061124482611227565b9050919050565b61125481611239565b82525050565b600060208201905061126f600083018461124b565b92915050565b7f4e487b7100000000000000000000000000000000000000000000000000000000600052602260045260246000fd5b600060028204905060018216806112bc57607f821691505b6020821081036112cf576112ce611275565b5b50919050565b7f4e487b7100000000000000000000000000000000000000000000000000000000600052601160045260246000fd5b600061130f8261102e565b915061131a8361102e565b9250828201905080821115611332576113316112d5565b5b92915050565b7f596f7520617265206e6f7420746865206f776e65720000000000000000000000600082015250565b600061136e601583610f24565b915061137982611338565b602082019050919050565b6000602082019050818103600083015261139d81611361565b9050919050565b6113ad81610ff0565b82525050565b60006020820190506113c860008301846113a4565b92915050565b6000815190506113dd81611038565b92915050565b6000602082840312156113f9576113f8610fcb565b5b6000611407848285016113ce565b91505092915050565b600061141b82611227565b9050919050565b61142b81611410565b82525050565b60006040820190506114466000830185611422565b61145360208301846110da565b9392505050565b611463816110a4565b811461146e57600080fd5b50565b6000815190506114808161145a565b92915050565b60006020828403121561149c5761149b610fcb565b5b60006114aa84828501611471565b91505092915050565b7f45524332303a2064656372656173656420616c6c6f77616e63652062656c6f7760008201527f207a65726f000000000000000000000000000000000000000000000000000000602082015250565b600061150f602583610f24565b915061151a826114b3565b604082019050919050565b6000602082019050818103600083015261153e81611502565b9050919050565b7f46617563657420697320656d70747920617420746865206d6f6d656e742e2e2e600082015250565b600061157b602083610f24565b915061158682611545565b602082019050919050565b600060208201905081810360008301526115aa8161156e565b9050919050565b60006040820190506115c660008301856113a4565b6115d360208301846110da565b9392505050565b7f45524332303a20617070726f76652066726f6d20746865207a65726f2061646460008201527f7265737300000000000000000000000000000000000000000000000000000000602082015250565b6000611636602483610f24565b9150611641826115da565b604082019050919050565b6000602082019050818103600083015261166581611629565b9050919050565b7f45524332303a20617070726f766520746f20746865207a65726f20616464726560008201527f7373000000000000000000000000000000000000000000000000000000000000602082015250565b60006116c8602283610f24565b91506116d38261166c565b604082019050919050565b600060208201905081810360008301526116f7816116bb565b9050919050565b7f45524332303a20696e73756666696369656e7420616c6c6f77616e6365000000600082015250565b6000611734601d83610f24565b915061173f826116fe565b602082019050919050565b6000602082019050818103600083015261176381611727565b9050919050565b7f45524332303a207472616e736665722066726f6d20746865207a65726f20616460008201527f6472657373000000000000000000000000000000000000000000000000000000602082015250565b60006117c6602583610f24565b91506117d18261176a565b604082019050919050565b600060208201905081810360008301526117f5816117b9565b9050919050565b7f45524332303a207472616e7366657220746f20746865207a65726f206164647260008201527f6573730000000000000000000000000000000000000000000000000000000000602082015250565b6000611858602383610f24565b9150611863826117fc565b604082019050919050565b600060208201905081810360008301526118878161184b565b9050919050565b7f45524332303a207472616e7366657220616d6f756e742065786365656473206260008201527f616c616e63650000000000000000000000000000000000000000000000000000602082015250565b60006118ea602683610f24565b91506118f58261188e565b604082019050919050565b60006020820190508181036000830152611919816118dd565b905091905056fea26469706673582212206a414002dfc4ed69ae35fcffde1a5d18ddf4f5e3c657f5dfe397cf523a9d9cc264736f6c63430008110033",
  "linkReferences": {},
  "deployedLinkReferences": {}
}