{
  "_format": "hh-sol-artifact-1",
  "contractName": "DiscoverPattaya",
  "sourceName": "contracts/DiscoverPattaya.sol",
  "abi": [
    {
      "inputs": [
        {
          "internalType": "contract IERC20",
          "name": "_tokenAddress",
          "type": "address"
        }
      ],
      "stateMutability": "nonpayable",
      "type": "constructor"
    },
    {
      "inputs": [],
      "name": "bookScuba",
      "outputs": [],
      "stateMutability": "payable",
      "type": "function"
    },
    {
      "inputs": [
        {
          "internalType": "address",
          "name": "_wallet",
          "type": "address"
        }
      ],
      "name": "getActivityByAddress",
      "outputs": [
        {
          "components": [
            {
              "internalType": "uint256",
              "name": "id",
              "type": "uint256"
            },
            {
              "internalType": "string",
              "name": "name",
              "type": "string"
            },
            {
              "internalType": "uint256",
              "name": "timeBooked",
              "type": "uint256"
            },
            {
              "internalType": "uint256",
              "name": "expiresDate",
              "type": "uint256"
            }
          ],
          "internalType": "struct DiscoverPattaya.Activity[]",
          "name": "",
          "type": "tuple[]"
        }
      ],
      "stateMutability": "view",
      "type": "function"
    },
    {
      "inputs": [
        {
          "internalType": "address",
          "name": "_wallet",
          "type": "address"
        }
      ],
      "name": "getClientByAddress",
      "outputs": [
        {
          "components": [
            {
              "internalType": "address",
              "name": "wallet",
              "type": "address"
            },
            {
              "internalType": "string",
              "name": "email",
              "type": "string"
            },
            {
              "internalType": "string",
              "name": "fullName",
              "type": "string"
            },
            {
              "internalType": "string",
              "name": "phoneNumber",
              "type": "string"
            }
          ],
          "internalType": "struct DiscoverPattaya.Client",
          "name": "",
          "type": "tuple"
        }
      ],
      "stateMutability": "view",
      "type": "function"
    },
    {
      "inputs": [
        {
          "internalType": "address",
          "name": "_wallet",
          "type": "address"
        },
        {
          "internalType": "string",
          "name": "_email",
          "type": "string"
        },
        {
          "internalType": "string",
          "name": "_fullName",
          "type": "string"
        },
        {
          "internalType": "string",
          "name": "_phoneNumber",
          "type": "string"
        }
      ],
      "name": "newClient",
      "outputs": [],
      "stateMutability": "nonpayable",
      "type": "function"
    },
    {
      "inputs": [],
      "name": "token",
      "outputs": [
        {
          "internalType": "contract IERC20",
          "name": "",
          "type": "address"
        }
      ],
      "stateMutability": "view",
      "type": "function"
    }
  ],
  "bytecode": "0x608060405268056bc75e2d6310000060025560006003553480156200002357600080fd5b50604051620018b4380380620018b483398181016040528101906200004991906200014f565b336000806101000a81548173ffffffffffffffffffffffffffffffffffffffff021916908373ffffffffffffffffffffffffffffffffffffffff16021790555080600160006101000a81548173ffffffffffffffffffffffffffffffffffffffff021916908373ffffffffffffffffffffffffffffffffffffffff1602179055505062000181565b600080fd5b600073ffffffffffffffffffffffffffffffffffffffff82169050919050565b60006200010382620000d6565b9050919050565b60006200011782620000f6565b9050919050565b62000129816200010a565b81146200013557600080fd5b50565b60008151905062000149816200011e565b92915050565b600060208284031215620001685762000167620000d1565b5b6000620001788482850162000138565b91505092915050565b61172380620001916000396000f3fe60806040526004361061004a5760003560e01c80635a827f7d1461004f5780638e571abf14610059578063b63999e614610096578063fc0c546a146100d3578063ff0c7ea8146100fe575b600080fd5b610057610127565b005b34801561006557600080fd5b50610080600480360381019061007b9190610bc2565b610561565b60405161008d9190610dbd565b60405180910390f35b3480156100a257600080fd5b506100bd60048036038101906100b89190610bc2565b6106af565b6040516100ca9190610e5f565b60405180910390f35b3480156100df57600080fd5b506100e8610914565b6040516100f59190610ee0565b60405180910390f35b34801561010a57600080fd5b5061012560048036038101906101209190611030565b61093a565b005b600254600160009054906101000a900473ffffffffffffffffffffffffffffffffffffffff1673ffffffffffffffffffffffffffffffffffffffff166370a08231336040518263ffffffff1660e01b815260040161018591906110fa565b602060405180830381865afa1580156101a2573d6000803e3d6000fd5b505050506040513d601f19601f820116820180604052508101906101c69190611141565b1015610207576040517f08c379a00000000000000000000000000000000000000000000000000000000081526004016101fe906111cb565b60405180910390fd5b3373ffffffffffffffffffffffffffffffffffffffff16600760003373ffffffffffffffffffffffffffffffffffffffff1673ffffffffffffffffffffffffffffffffffffffff16815260200190815260200160002060000160009054906101000a900473ffffffffffffffffffffffffffffffffffffffff1673ffffffffffffffffffffffffffffffffffffffff16146102d7576040517f08c379a00000000000000000000000000000000000000000000000000000000081526004016102ce90611237565b60405180910390fd5b600160009054906101000a900473ffffffffffffffffffffffffffffffffffffffff1673ffffffffffffffffffffffffffffffffffffffff166323b872dd33306002546040518463ffffffff1660e01b815260040161033893929190611266565b6020604051808303816000875af1158015610357573d6000803e3d6000fd5b505050506040513d601f19601f8201168201806040525081019061037b91906112d5565b50600660003373ffffffffffffffffffffffffffffffffffffffff1673ffffffffffffffffffffffffffffffffffffffff168152602001908152602001600020604051806080016040528060035481526020016040518060400160405280600581526020017f536375626100000000000000000000000000000000000000000000000000000081525081526020014281526020016202a3004261041e9190611331565b81525090806001815401808255809150506001900390600052602060002090600402016000909190919091506000820151816000015560208201518160010190816104699190611567565b50604082015181600201556060820151816003015550506005604051806080016040528060035481526020016040518060400160405280600581526020017f536375626100000000000000000000000000000000000000000000000000000081525081526020014281526020016202a300426104e59190611331565b81525090806001815401808255809150506001900390600052602060002090600402016000909190919091506000820151816000015560208201518160010190816105309190611567565b50604082015181600201556060820151816003015550506003600081548092919061055a90611639565b9190505550565b6060600660008373ffffffffffffffffffffffffffffffffffffffff1673ffffffffffffffffffffffffffffffffffffffff168152602001908152602001600020805480602002602001604051908101604052809291908181526020016000905b828210156106a45783829060005260206000209060040201604051806080016040529081600082015481526020016001820180546105ff90611394565b80601f016020809104026020016040519081016040528092919081815260200182805461062b90611394565b80156106785780601f1061064d57610100808354040283529160200191610678565b820191906000526020600020905b81548152906001019060200180831161065b57829003601f168201915b5050505050815260200160028201548152602001600382015481525050815260200190600101906105c2565b505050509050919050565b6106b7610b12565b600760008373ffffffffffffffffffffffffffffffffffffffff1673ffffffffffffffffffffffffffffffffffffffff1681526020019081526020016000206040518060800160405290816000820160009054906101000a900473ffffffffffffffffffffffffffffffffffffffff1673ffffffffffffffffffffffffffffffffffffffff1673ffffffffffffffffffffffffffffffffffffffff16815260200160018201805461076790611394565b80601f016020809104026020016040519081016040528092919081815260200182805461079390611394565b80156107e05780601f106107b5576101008083540402835291602001916107e0565b820191906000526020600020905b8154815290600101906020018083116107c357829003601f168201915b505050505081526020016002820180546107f990611394565b80601f016020809104026020016040519081016040528092919081815260200182805461082590611394565b80156108725780601f1061084757610100808354040283529160200191610872565b820191906000526020600020905b81548152906001019060200180831161085557829003601f168201915b5050505050815260200160038201805461088b90611394565b80601f01602080910402602001604051908101604052809291908181526020018280546108b790611394565b80156109045780601f106108d957610100808354040283529160200191610904565b820191906000526020600020905b8154815290600101906020018083116108e757829003601f168201915b5050505050815250509050919050565b600160009054906101000a900473ffffffffffffffffffffffffffffffffffffffff1681565b3373ffffffffffffffffffffffffffffffffffffffff16600760003373ffffffffffffffffffffffffffffffffffffffff1673ffffffffffffffffffffffffffffffffffffffff16815260200190815260200160002060000160009054906101000a900473ffffffffffffffffffffffffffffffffffffffff1673ffffffffffffffffffffffffffffffffffffffff1603610a0a576040517f08c379a0000000000000000000000000000000000000000000000000000000008152600401610a01906116cd565b60405180910390fd5b60405180608001604052808573ffffffffffffffffffffffffffffffffffffffff16815260200184815260200183815260200182815250600760003373ffffffffffffffffffffffffffffffffffffffff1673ffffffffffffffffffffffffffffffffffffffff16815260200190815260200160002060008201518160000160006101000a81548173ffffffffffffffffffffffffffffffffffffffff021916908373ffffffffffffffffffffffffffffffffffffffff1602179055506020820151816001019081610adc9190611567565b506040820151816002019081610af29190611567565b506060820151816003019081610b089190611567565b5090505050505050565b6040518060800160405280600073ffffffffffffffffffffffffffffffffffffffff1681526020016060815260200160608152602001606081525090565b6000604051905090565b600080fd5b600080fd5b600073ffffffffffffffffffffffffffffffffffffffff82169050919050565b6000610b8f82610b64565b9050919050565b610b9f81610b84565b8114610baa57600080fd5b50565b600081359050610bbc81610b96565b92915050565b600060208284031215610bd857610bd7610b5a565b5b6000610be684828501610bad565b91505092915050565b600081519050919050565b600082825260208201905092915050565b6000819050602082019050919050565b6000819050919050565b610c2e81610c1b565b82525050565b600081519050919050565b600082825260208201905092915050565b60005b83811015610c6e578082015181840152602081019050610c53565b60008484015250505050565b6000601f19601f8301169050919050565b6000610c9682610c34565b610ca08185610c3f565b9350610cb0818560208601610c50565b610cb981610c7a565b840191505092915050565b6000608083016000830151610cdc6000860182610c25565b5060208301518482036020860152610cf48282610c8b565b9150506040830151610d096040860182610c25565b506060830151610d1c6060860182610c25565b508091505092915050565b6000610d338383610cc4565b905092915050565b6000602082019050919050565b6000610d5382610bef565b610d5d8185610bfa565b935083602082028501610d6f85610c0b565b8060005b85811015610dab5784840389528151610d8c8582610d27565b9450610d9783610d3b565b925060208a01995050600181019050610d73565b50829750879550505050505092915050565b60006020820190508181036000830152610dd78184610d48565b905092915050565b610de881610b84565b82525050565b6000608083016000830151610e066000860182610ddf565b5060208301518482036020860152610e1e8282610c8b565b91505060408301518482036040860152610e388282610c8b565b91505060608301518482036060860152610e528282610c8b565b9150508091505092915050565b60006020820190508181036000830152610e798184610dee565b905092915050565b6000819050919050565b6000610ea6610ea1610e9c84610b64565b610e81565b610b64565b9050919050565b6000610eb882610e8b565b9050919050565b6000610eca82610ead565b9050919050565b610eda81610ebf565b82525050565b6000602082019050610ef56000830184610ed1565b92915050565b600080fd5b600080fd5b7f4e487b7100000000000000000000000000000000000000000000000000000000600052604160045260246000fd5b610f3d82610c7a565b810181811067ffffffffffffffff82111715610f5c57610f5b610f05565b5b80604052505050565b6000610f6f610b50565b9050610f7b8282610f34565b919050565b600067ffffffffffffffff821115610f9b57610f9a610f05565b5b610fa482610c7a565b9050602081019050919050565b82818337600083830152505050565b6000610fd3610fce84610f80565b610f65565b905082815260208101848484011115610fef57610fee610f00565b5b610ffa848285610fb1565b509392505050565b600082601f83011261101757611016610efb565b5b8135611027848260208601610fc0565b91505092915050565b6000806000806080858703121561104a57611049610b5a565b5b600061105887828801610bad565b945050602085013567ffffffffffffffff81111561107957611078610b5f565b5b61108587828801611002565b935050604085013567ffffffffffffffff8111156110a6576110a5610b5f565b5b6110b287828801611002565b925050606085013567ffffffffffffffff8111156110d3576110d2610b5f565b5b6110df87828801611002565b91505092959194509250565b6110f481610b84565b82525050565b600060208201905061110f60008301846110eb565b92915050565b61111e81610c1b565b811461112957600080fd5b50565b60008151905061113b81611115565b92915050565b60006020828403121561115757611156610b5a565b5b60006111658482850161112c565b91505092915050565b600082825260208201905092915050565b7f596f7520646f6e74206861766520656e6f7567682066756e6473000000000000600082015250565b60006111b5601a8361116e565b91506111c08261117f565b602082019050919050565b600060208201905081810360008301526111e4816111a8565b9050919050565b7f596f75206e65656420616e206163636f756e7400000000000000000000000000600082015250565b600061122160138361116e565b915061122c826111eb565b602082019050919050565b6000602082019050818103600083015261125081611214565b9050919050565b61126081610c1b565b82525050565b600060608201905061127b60008301866110eb565b61128860208301856110eb565b6112956040830184611257565b949350505050565b60008115159050919050565b6112b28161129d565b81146112bd57600080fd5b50565b6000815190506112cf816112a9565b92915050565b6000602082840312156112eb576112ea610b5a565b5b60006112f9848285016112c0565b91505092915050565b7f4e487b7100000000000000000000000000000000000000000000000000000000600052601160045260246000fd5b600061133c82610c1b565b915061134783610c1b565b925082820190508082111561135f5761135e611302565b5b92915050565b7f4e487b7100000000000000000000000000000000000000000000000000000000600052602260045260246000fd5b600060028204905060018216806113ac57607f821691505b6020821081036113bf576113be611365565b5b50919050565b60008190508160005260206000209050919050565b60006020601f8301049050919050565b600082821b905092915050565b6000600883026114277fffffffffffffffffffffffffffffffffffffffffffffffffffffffffffffffff826113ea565b61143186836113ea565b95508019841693508086168417925050509392505050565b600061146461145f61145a84610c1b565b610e81565b610c1b565b9050919050565b6000819050919050565b61147e83611449565b61149261148a8261146b565b8484546113f7565b825550505050565b600090565b6114a761149a565b6114b2818484611475565b505050565b5b818110156114d6576114cb60008261149f565b6001810190506114b8565b5050565b601f82111561151b576114ec816113c5565b6114f5846113da565b81016020851015611504578190505b611518611510856113da565b8301826114b7565b50505b505050565b600082821c905092915050565b600061153e60001984600802611520565b1980831691505092915050565b6000611557838361152d565b9150826002028217905092915050565b61157082610c34565b67ffffffffffffffff81111561158957611588610f05565b5b6115938254611394565b61159e8282856114da565b600060209050601f8311600181146115d157600084156115bf578287015190505b6115c9858261154b565b865550611631565b601f1984166115df866113c5565b60005b82811015611607578489015182556001820191506020850194506020810190506115e2565b868310156116245784890151611620601f89168261152d565b8355505b6001600288020188555050505b505050505050565b600061164482610c1b565b91507fffffffffffffffffffffffffffffffffffffffffffffffffffffffffffffffff820361167657611675611302565b5b600182019050919050565b7f596f7520616c7265616479206861766520616e206163636f756e740000000000600082015250565b60006116b7601b8361116e565b91506116c282611681565b602082019050919050565b600060208201905081810360008301526116e6816116aa565b905091905056fea264697066735822122091a1ac5b2c3c7b58031eb8799ad2c62339c87046def813bc227632663344c90f64736f6c63430008110033",
  "linkReferences": {},
  "deployedLinkReferences": {}
}